{
  "_format": "hh-sol-artifact-1",
  "contractName": "F3Parameters",
  "sourceName": "contracts/F3Parameters.sol",
  "abi": [
    {
      "inputs": [
        {
          "internalType": "address",
          "name": "owner",
          "type": "address"
        },
        {
          "internalType": "uint64",
          "name": "expiry",
          "type": "uint64"
        }
      ],
      "stateMutability": "nonpayable",
      "type": "constructor"
    },
    {
      "inputs": [
        {
          "internalType": "address",
          "name": "owner",
          "type": "address"
        }
      ],
      "name": "OwnableInvalidOwner",
      "type": "error"
    },
    {
      "inputs": [
        {
          "internalType": "address",
          "name": "account",
          "type": "address"
        }
      ],
      "name": "OwnableUnauthorizedAccount",
      "type": "error"
    },
    {
      "inputs": [
        {
          "internalType": "uint64",
          "name": "currentEpoch",
          "type": "uint64"
        },
        {
          "internalType": "uint64",
          "name": "activationEpoch",
          "type": "uint64"
        },
        {
          "internalType": "string",
          "name": "reason",
          "type": "string"
        }
      ],
      "name": "UpdateActivationEpochInvalid",
      "type": "error"
    },
    {
      "inputs": [],
      "name": "UpdateAlreadyActive",
      "type": "error"
    },
    {
      "inputs": [],
      "name": "UpdateExpired",
      "type": "error"
    },
    {
      "anonymous": false,
      "inputs": [
        {
          "indexed": true,
          "internalType": "address",
          "name": "previousOwner",
          "type": "address"
        },
        {
          "indexed": true,
          "internalType": "address",
          "name": "newOwner",
          "type": "address"
        }
      ],
      "name": "OwnershipTransferred",
      "type": "event"
    },
    {
      "inputs": [],
      "name": "MIN_ACTIVATION_HEADROOM_BLOCKS",
      "outputs": [
        {
          "internalType": "uint128",
          "name": "",
          "type": "uint128"
        }
      ],
      "stateMutability": "view",
      "type": "function"
    },
    {
      "inputs": [],
      "name": "activatesAtEpoch",
      "outputs": [
        {
          "internalType": "uint64",
          "name": "",
          "type": "uint64"
        }
      ],
      "stateMutability": "view",
      "type": "function"
    },
    {
      "inputs": [],
      "name": "activationInformation",
      "outputs": [
        {
          "internalType": "uint64",
          "name": "",
          "type": "uint64"
        },
        {
          "internalType": "bytes",
          "name": "",
          "type": "bytes"
        }
      ],
      "stateMutability": "view",
      "type": "function"
    },
    {
      "inputs": [],
      "name": "expiresAt",
      "outputs": [
        {
          "internalType": "uint64",
          "name": "",
          "type": "uint64"
        }
      ],
      "stateMutability": "view",
      "type": "function"
    },
    {
      "inputs": [],
      "name": "getMinActivationHeadroomBlocks",
      "outputs": [
        {
          "internalType": "uint128",
          "name": "",
          "type": "uint128"
        }
      ],
      "stateMutability": "pure",
      "type": "function"
    },
    {
      "inputs": [],
      "name": "owner",
      "outputs": [
        {
          "internalType": "address",
          "name": "",
          "type": "address"
        }
      ],
      "stateMutability": "view",
      "type": "function"
    },
    {
      "inputs": [],
      "name": "renounceOwnership",
      "outputs": [],
      "stateMutability": "nonpayable",
      "type": "function"
    },
    {
      "inputs": [
        {
          "internalType": "address",
          "name": "newOwner",
          "type": "address"
        }
      ],
      "name": "transferOwnership",
      "outputs": [],
      "stateMutability": "nonpayable",
      "type": "function"
    },
    {
      "inputs": [
        {
          "internalType": "uint64",
          "name": "activationEpoch",
          "type": "uint64"
        },
        {
          "internalType": "bytes",
          "name": "manifestData",
          "type": "bytes"
        }
      ],
      "name": "updateActivationInformation",
      "outputs": [],
      "stateMutability": "nonpayable",
      "type": "function"
    }
  ],
  "bytecode": "0x60a060405234801561001057600080fd5b506040516109a03803806109a083398101604081905261002f916100e9565b816001600160a01b03811661005e57604051631e4fbdf760e01b81526000600482015260240160405180910390fd5b61006781610099565b506001600160401b03166080525060008054600160a01b600160e01b031916600160a01b600160e01b0317905561013b565b600080546001600160a01b038381166001600160a01b0319831681178455604051919092169283917f8be0079c531659141344cd1fd0a4f28419497f9722a3daafe3b4186f6b6457e09190a35050565b600080604083850312156100fc57600080fd5b82516001600160a01b038116811461011357600080fd5b60208401519092506001600160401b038116811461013057600080fd5b809150509250929050565b60805161084361015d60003960008181610122015261024701526108436000f3fe608060405234801561001057600080fd5b50600436106100935760003560e01c8063715018a611610066578063715018a6146101185780638622a689146101205780638da5cb5b14610146578063eb226d6c14610161578063f2fde38b1461016957600080fd5b80632587660d1461009857806337e8942d146100b75780634f012d2c146100e35780636529e95a14610103575b600080fd5b6100a061017c565b6040516100ae929190610536565b60405180910390f35b600054600160a01b90046001600160401b03165b6040516001600160401b0390911681526020016100ae565b6100eb61022c565b6040516001600160801b0390911681526020016100ae565b610116610111366004610596565b61023d565b005b610116610452565b7f00000000000000000000000000000000000000000000000000000000000000006100cb565b6000546040516001600160a01b0390911681526020016100ae565b6100eb610466565b610116610177366004610621565b61047b565b60006060600060149054906101000a90046001600160401b031660018080546101a490610651565b80601f01602080910402602001604051908101604052809291908181526020018280546101d090610651565b801561021d5780601f106101f25761010080835404028352916020019161021d565b820191906000526020600020905b81548152906001019060200180831161020057829003601f168201915b50505050509050915091509091565b61023a601e6205460061068b565b81565b6102456104b9565b7f00000000000000000000000000000000000000000000000000000000000000006001600160401b031642111561028f576040516364ab4ecb60e01b815260040160405180910390fd5b600054600160a01b90046001600160401b031643106102c15760405163f8c622cd60e01b815260040160405180910390fd5b43836001600160401b0316116103465760405163126c97cd60e01b81526001600160401b0343811660048301528416602482015260606044820152602760648201527f61637469766174696f6e45706f6368206973206265666f72652063757272656e6084820152667420626c6f636b60c81b60a482015260c4015b60405180910390fd5b610354601e6205460061068b565b6001600160801b0316610370436001600160401b0386166106bf565b6001600160801b0316101561041a5760405163126c97cd60e01b81526001600160401b0343811660048301528416602482015260606044820152604c60648201527f61637469766174696f6e45706f63682069732077697468696e206d696e41637460848201527f69766174696f6e48656164726f6f6d426c6f636b732066726f6d20746865206360a48201526b757272656e7420626c6f636b60a01b60c482015260e40161033d565b6000805467ffffffffffffffff60a01b1916600160a01b6001600160401b03861602179055600161044c82848361074d565b50505050565b61045a6104b9565b61046460006104e6565b565b6000610476601e6205460061068b565b905090565b6104836104b9565b6001600160a01b0381166104ad57604051631e4fbdf760e01b81526000600482015260240161033d565b6104b6816104e6565b50565b6000546001600160a01b031633146104645760405163118cdaa760e01b815233600482015260240161033d565b600080546001600160a01b038381166001600160a01b0319831681178455604051919092169283917f8be0079c531659141344cd1fd0a4f28419497f9722a3daafe3b4186f6b6457e09190a35050565b6001600160401b03831681526000602060406020840152835180604085015260005b8181101561057457858101830151858201606001528201610558565b506000606082860101526060601f19601f830116850101925050509392505050565b6000806000604084860312156105ab57600080fd5b83356001600160401b0380821682146105c357600080fd5b909350602085013590808211156105d957600080fd5b818601915086601f8301126105ed57600080fd5b8135818111156105fc57600080fd5b87602082850101111561060e57600080fd5b6020830194508093505050509250925092565b60006020828403121561063357600080fd5b81356001600160a01b038116811461064a57600080fd5b9392505050565b600181811c9082168061066557607f821691505b60208210810361068557634e487b7160e01b600052602260045260246000fd5b50919050565b60006001600160801b03808416806106b357634e487b7160e01b600052601260045260246000fd5b92169190910492915050565b818103818111156106e057634e487b7160e01b600052601160045260246000fd5b92915050565b634e487b7160e01b600052604160045260246000fd5b601f821115610748576000816000526020600020601f850160051c810160208610156107255750805b601f850160051c820191505b8181101561074457828155600101610731565b5050505b505050565b6001600160401b03831115610764576107646106e6565b610778836107728354610651565b836106fc565b6000601f8411600181146107ac57600085156107945750838201355b600019600387901b1c1916600186901b178355610806565b600083815260209020601f19861690835b828110156107dd57868501358255602094850194600190920191016107bd565b50868210156107fa5760001960f88860031b161c19848701351681555b505060018560011b0183555b505050505056fea26469706673582212204db5391f67615dad064eff7f4f500d7b79c806faa384cadfb579b87ad6ace51564736f6c63430008170033",
  "linkReferences": {},
  "deployedLinkReferences": {}
}